{
  "_format": "hh-sol-artifact-1",
  "contractName": "ProductTraceability",
  "sourceName": "contracts/ProductTraceability.sol",
  "abi": [
    {
      "inputs": [],
      "stateMutability": "nonpayable",
      "type": "constructor"
    },
    {
      "anonymous": false,
      "inputs": [
        {
          "indexed": false,
          "internalType": "string",
          "name": "productId",
          "type": "string"
        },
        {
          "indexed": true,
          "internalType": "address",
          "name": "creator",
          "type": "address"
        }
      ],
      "name": "ProductAdded",
      "type": "event"
    },
    {
      "anonymous": false,
      "inputs": [
        {
          "indexed": false,
          "internalType": "string",
          "name": "productId",
          "type": "string"
        },
        {
          "indexed": false,
          "internalType": "string",
          "name": "stage",
          "type": "string"
        }
      ],
      "name": "StageUpdated",
      "type": "event"
    },
    {
      "anonymous": false,
      "inputs": [
        {
          "indexed": true,
          "internalType": "address",
          "name": "account",
          "type": "address"
        },
        {
          "indexed": false,
          "internalType": "bool",
          "name": "status",
          "type": "bool"
        }
      ],
      "name": "Whitelisted",
      "type": "event"
    },
    {
      "inputs": [
        {
          "internalType": "string",
          "name": "productId",
          "type": "string"
        },
        {
          "internalType": "string",
          "name": "name",
          "type": "string"
        },
        {
          "internalType": "string",
          "name": "origin",
          "type": "string"
        },
        {
          "internalType": "string",
          "name": "manufacturer",
          "type": "string"
        },
        {
          "internalType": "string",
          "name": "certificationHash",
          "type": "string"
        }
      ],
      "name": "addProduct",
      "outputs": [],
      "stateMutability": "nonpayable",
      "type": "function"
    },
    {
      "inputs": [
        {
          "internalType": "string",
          "name": "productId",
          "type": "string"
        }
      ],
      "name": "getProduct",
      "outputs": [
        {
          "internalType": "string",
          "name": "",
          "type": "string"
        },
        {
          "internalType": "string",
          "name": "",
          "type": "string"
        },
        {
          "internalType": "string",
          "name": "",
          "type": "string"
        },
        {
          "internalType": "string",
          "name": "",
          "type": "string"
        },
        {
          "internalType": "string[]",
          "name": "",
          "type": "string[]"
        },
        {
          "internalType": "string",
          "name": "",
          "type": "string"
        },
        {
          "internalType": "uint256",
          "name": "",
          "type": "uint256"
        },
        {
          "internalType": "address",
          "name": "",
          "type": "address"
        }
      ],
      "stateMutability": "view",
      "type": "function"
    },
    {
      "inputs": [],
      "name": "owner",
      "outputs": [
        {
          "internalType": "address",
          "name": "",
          "type": "address"
        }
      ],
      "stateMutability": "view",
      "type": "function"
    },
    {
      "inputs": [
        {
          "internalType": "string",
          "name": "productId",
          "type": "string"
        },
        {
          "internalType": "string",
          "name": "stage",
          "type": "string"
        }
      ],
      "name": "updateStage",
      "outputs": [],
      "stateMutability": "nonpayable",
      "type": "function"
    },
    {
      "inputs": [
        {
          "internalType": "address",
          "name": "account",
          "type": "address"
        },
        {
          "internalType": "bool",
          "name": "status",
          "type": "bool"
        }
      ],
      "name": "whitelist",
      "outputs": [],
      "stateMutability": "nonpayable",
      "type": "function"
    },
    {
      "inputs": [
        {
          "internalType": "address",
          "name": "",
          "type": "address"
        }
      ],
      "name": "whitelisted",
      "outputs": [
        {
          "internalType": "bool",
          "name": "",
          "type": "bool"
        }
      ],
      "stateMutability": "view",
      "type": "function"
    }
  ],
  "bytecode": "0x608060405234801561001057600080fd5b5033600260006101000a81548173ffffffffffffffffffffffffffffffffffffffff021916908373ffffffffffffffffffffffffffffffffffffffff1602179055506001600360003373ffffffffffffffffffffffffffffffffffffffff1673ffffffffffffffffffffffffffffffffffffffff16815260200190815260200160002060006101000a81548160ff02191690831515021790555061174c806100b96000396000f3fe608060405234801561001057600080fd5b50600436106100625760003560e01c806368111cce146100675780638da5cb5b1461009e578063d936547e146100bc578063ef6da8d4146100ec578063f59c370814610108578063f930f70414610124575b600080fd5b610081600480360381019061007c9190610c71565b610140565b604051610095989796959493929190610e9f565b60405180910390f35b6100a66105c5565b6040516100b39190610f47565b60405180910390f35b6100d660048036038101906100d19190610f8e565b6105eb565b6040516100e39190610fd6565b60405180910390f35b61010660048036038101906101019190610ff1565b61060b565b005b610122600480360381019061011d9190611124565b610856565b005b61013e60048036038101906101399190611164565b61098f565b005b60608060608060608060008060018960405161015c9190611218565b908152602001604051809103902060009054906101000a900460ff166101b7576040517f08c379a00000000000000000000000000000000000000000000000000000000081526004016101ae9061127b565b60405180910390fd5b6000808a6040516101c89190611218565b9081526020016040518091039020905080600001816001018260020183600301846004018560050186600601548760070160009054906101000a900473ffffffffffffffffffffffffffffffffffffffff16878054610226906112ca565b80601f0160208091040260200160405190810160405280929190818152602001828054610252906112ca565b801561029f5780601f106102745761010080835404028352916020019161029f565b820191906000526020600020905b81548152906001019060200180831161028257829003601f168201915b505050505097508680546102b2906112ca565b80601f01602080910402602001604051908101604052809291908181526020018280546102de906112ca565b801561032b5780601f106103005761010080835404028352916020019161032b565b820191906000526020600020905b81548152906001019060200180831161030e57829003601f168201915b5050505050965085805461033e906112ca565b80601f016020809104026020016040519081016040528092919081815260200182805461036a906112ca565b80156103b75780601f1061038c576101008083540402835291602001916103b7565b820191906000526020600020905b81548152906001019060200180831161039a57829003601f168201915b505050505095508480546103ca906112ca565b80601f01602080910402602001604051908101604052809291908181526020018280546103f6906112ca565b80156104435780601f1061041857610100808354040283529160200191610443565b820191906000526020600020905b81548152906001019060200180831161042657829003601f168201915b5050505050945083805480602002602001604051908101604052809291908181526020016000905b8282101561051757838290600052602060002001805461048a906112ca565b80601f01602080910402602001604051908101604052809291908181526020018280546104b6906112ca565b80156105035780601f106104d857610100808354040283529160200191610503565b820191906000526020600020905b8154815290600101906020018083116104e657829003601f168201915b50505050508152602001906001019061046b565b505050509350828054610529906112ca565b80601f0160208091040260200160405190810160405280929190818152602001828054610555906112ca565b80156105a25780601f10610577576101008083540402835291602001916105a2565b820191906000526020600020905b81548152906001019060200180831161058557829003601f168201915b505050505092509850985098509850985098509850985050919395975091939597565b600260009054906101000a900473ffffffffffffffffffffffffffffffffffffffff1681565b60036020528060005260406000206000915054906101000a900460ff1681565b600360003373ffffffffffffffffffffffffffffffffffffffff1673ffffffffffffffffffffffffffffffffffffffff16815260200190815260200160002060009054906101000a900460ff16610697576040517f08c379a000000000000000000000000000000000000000000000000000000000815260040161068e90611347565b60405180910390fd5b6001856040516106a79190611218565b908152602001604051809103902060009054906101000a900460ff1615610703576040517f08c379a00000000000000000000000000000000000000000000000000000000081526004016106fa906113b3565b60405180910390fd5b600080866040516107149190611218565b9081526020016040518091039020905085816000019081610735919061157f565b5084816001019081610747919061157f565b5083816002019081610759919061157f565b508281600301908161076b919061157f565b508181600501908161077d919061157f565b50428160060181905550338160070160006101000a81548173ffffffffffffffffffffffffffffffffffffffff021916908373ffffffffffffffffffffffffffffffffffffffff160217905550600180876040516107db9190611218565b908152602001604051809103902060006101000a81548160ff0219169083151502179055503373ffffffffffffffffffffffffffffffffffffffff167f4cc39cf92556f56ba17184d656cf1bbcfd5f8e8d7b1071d0e295017b9f70f41b876040516108469190611651565b60405180910390a2505050505050565b600260009054906101000a900473ffffffffffffffffffffffffffffffffffffffff1673ffffffffffffffffffffffffffffffffffffffff163373ffffffffffffffffffffffffffffffffffffffff16146108e6576040517f08c379a00000000000000000000000000000000000000000000000000000000081526004016108dd906116bf565b60405180910390fd5b80600360008473ffffffffffffffffffffffffffffffffffffffff1673ffffffffffffffffffffffffffffffffffffffff16815260200190815260200160002060006101000a81548160ff0219169083151502179055508173ffffffffffffffffffffffffffffffffffffffff167fa54714518c5d275fdcd3d2a461e4858e4e8cb04fb93cd0bca9d6d34115f26440826040516109839190610fd6565b60405180910390a25050565b600360003373ffffffffffffffffffffffffffffffffffffffff1673ffffffffffffffffffffffffffffffffffffffff16815260200190815260200160002060009054906101000a900460ff16610a1b576040517f08c379a0000000000000000000000000000000000000000000000000000000008152600401610a1290611347565b60405180910390fd5b600182604051610a2b9190611218565b908152602001604051809103902060009054906101000a900460ff16610a86576040517f08c379a0000000000000000000000000000000000000000000000000000000008152600401610a7d9061127b565b60405180910390fd5b600082604051610a969190611218565b908152602001604051809103902060040181908060018154018082558091505060019003906000526020600020016000909190919091509081610ad9919061157f565b507f4c808da8945e3931e594408d619c902a57e65451719098af668ee530a17dfc998282604051610b0b9291906116df565b60405180910390a15050565b6000604051905090565b600080fd5b600080fd5b600080fd5b600080fd5b6000601f19601f8301169050919050565b7f4e487b7100000000000000000000000000000000000000000000000000000000600052604160045260246000fd5b610b7e82610b35565b810181811067ffffffffffffffff82111715610b9d57610b9c610b46565b5b80604052505050565b6000610bb0610b17565b9050610bbc8282610b75565b919050565b600067ffffffffffffffff821115610bdc57610bdb610b46565b5b610be582610b35565b9050602081019050919050565b82818337600083830152505050565b6000610c14610c0f84610bc1565b610ba6565b905082815260208101848484011115610c3057610c2f610b30565b5b610c3b848285610bf2565b509392505050565b600082601f830112610c5857610c57610b2b565b5b8135610c68848260208601610c01565b91505092915050565b600060208284031215610c8757610c86610b21565b5b600082013567ffffffffffffffff811115610ca557610ca4610b26565b5b610cb184828501610c43565b91505092915050565b600081519050919050565b600082825260208201905092915050565b60005b83811015610cf4578082015181840152602081019050610cd9565b60008484015250505050565b6000610d0b82610cba565b610d158185610cc5565b9350610d25818560208601610cd6565b610d2e81610b35565b840191505092915050565b600081519050919050565b600082825260208201905092915050565b6000819050602082019050919050565b600082825260208201905092915050565b6000610d8182610cba565b610d8b8185610d65565b9350610d9b818560208601610cd6565b610da481610b35565b840191505092915050565b6000610dbb8383610d76565b905092915050565b6000602082019050919050565b6000610ddb82610d39565b610de58185610d44565b935083602082028501610df785610d55565b8060005b85811015610e335784840389528151610e148582610daf565b9450610e1f83610dc3565b925060208a01995050600181019050610dfb565b50829750879550505050505092915050565b6000819050919050565b610e5881610e45565b82525050565b600073ffffffffffffffffffffffffffffffffffffffff82169050919050565b6000610e8982610e5e565b9050919050565b610e9981610e7e565b82525050565b6000610100820190508181036000830152610eba818b610d00565b90508181036020830152610ece818a610d00565b90508181036040830152610ee28189610d00565b90508181036060830152610ef68188610d00565b90508181036080830152610f0a8187610dd0565b905081810360a0830152610f1e8186610d00565b9050610f2d60c0830185610e4f565b610f3a60e0830184610e90565b9998505050505050505050565b6000602082019050610f5c6000830184610e90565b92915050565b610f6b81610e7e565b8114610f7657600080fd5b50565b600081359050610f8881610f62565b92915050565b600060208284031215610fa457610fa3610b21565b5b6000610fb284828501610f79565b91505092915050565b60008115159050919050565b610fd081610fbb565b82525050565b6000602082019050610feb6000830184610fc7565b92915050565b600080600080600060a0868803121561100d5761100c610b21565b5b600086013567ffffffffffffffff81111561102b5761102a610b26565b5b61103788828901610c43565b955050602086013567ffffffffffffffff81111561105857611057610b26565b5b61106488828901610c43565b945050604086013567ffffffffffffffff81111561108557611084610b26565b5b61109188828901610c43565b935050606086013567ffffffffffffffff8111156110b2576110b1610b26565b5b6110be88828901610c43565b925050608086013567ffffffffffffffff8111156110df576110de610b26565b5b6110eb88828901610c43565b9150509295509295909350565b61110181610fbb565b811461110c57600080fd5b50565b60008135905061111e816110f8565b92915050565b6000806040838503121561113b5761113a610b21565b5b600061114985828601610f79565b925050602061115a8582860161110f565b9150509250929050565b6000806040838503121561117b5761117a610b21565b5b600083013567ffffffffffffffff81111561119957611198610b26565b5b6111a585828601610c43565b925050602083013567ffffffffffffffff8111156111c6576111c5610b26565b5b6111d285828601610c43565b9150509250929050565b600081905092915050565b60006111f282610cba565b6111fc81856111dc565b935061120c818560208601610cd6565b80840191505092915050565b600061122482846111e7565b915081905092915050565b7f50726f6475637420646f6573206e6f7420657869737400000000000000000000600082015250565b6000611265601683610cc5565b91506112708261122f565b602082019050919050565b6000602082019050818103600083015261129481611258565b9050919050565b7f4e487b7100000000000000000000000000000000000000000000000000000000600052602260045260246000fd5b600060028204905060018216806112e257607f821691505b6020821081036112f5576112f461129b565b5b50919050565b7f4e6f742077686974656c69737465640000000000000000000000000000000000600082015250565b6000611331600f83610cc5565b915061133c826112fb565b602082019050919050565b6000602082019050818103600083015261136081611324565b9050919050565b7f50726f6475637420616c72656164792065786973747300000000000000000000600082015250565b600061139d601683610cc5565b91506113a882611367565b602082019050919050565b600060208201905081810360008301526113cc81611390565b9050919050565b60008190508160005260206000209050919050565b60006020601f8301049050919050565b600082821b905092915050565b6000600883026114357fffffffffffffffffffffffffffffffffffffffffffffffffffffffffffffffff826113f8565b61143f86836113f8565b95508019841693508086168417925050509392505050565b6000819050919050565b600061147c61147761147284610e45565b611457565b610e45565b9050919050565b6000819050919050565b61149683611461565b6114aa6114a282611483565b848454611405565b825550505050565b600090565b6114bf6114b2565b6114ca81848461148d565b505050565b5b818110156114ee576114e36000826114b7565b6001810190506114d0565b5050565b601f82111561153357611504816113d3565b61150d846113e8565b8101602085101561151c578190505b611530611528856113e8565b8301826114cf565b50505b505050565b600082821c905092915050565b600061155660001984600802611538565b1980831691505092915050565b600061156f8383611545565b9150826002028217905092915050565b61158882610cba565b67ffffffffffffffff8111156115a1576115a0610b46565b5b6115ab82546112ca565b6115b68282856114f2565b600060209050601f8311600181146115e957600084156115d7578287015190505b6115e18582611563565b865550611649565b601f1984166115f7866113d3565b60005b8281101561161f578489015182556001820191506020850194506020810190506115fa565b8683101561163c5784890151611638601f891682611545565b8355505b6001600288020188555050505b505050505050565b6000602082019050818103600083015261166b8184610d00565b905092915050565b7f4e6f7420636f6e7472616374206f776e65720000000000000000000000000000600082015250565b60006116a9601283610cc5565b91506116b482611673565b602082019050919050565b600060208201905081810360008301526116d88161169c565b9050919050565b600060408201905081810360008301526116f98185610d00565b9050818103602083015261170d8184610d00565b9050939250505056fea2646970667358221220123156dd0ca6f0f3fd5c2e468206eba09a6cd9a01629e972a1e1d7564fffbcea64736f6c63430008140033",
  "linkReferences": {},
  "deployedLinkReferences": {}
}